{
  "_format": "hh3-artifact-1",
  "contractName": "ProducerRegistry",
  "sourceName": "contracts/ProducerRegistry.sol",
  "abi": [
    {
      "inputs": [],
      "stateMutability": "nonpayable",
      "type": "constructor"
    },
    {
      "anonymous": false,
      "inputs": [
        {
          "indexed": false,
          "internalType": "address",
          "name": "producer",
          "type": "address"
        }
      ],
      "name": "ProducerApproved",
      "type": "event"
    },
    {
      "anonymous": false,
      "inputs": [
        {
          "indexed": false,
          "internalType": "address",
          "name": "producer",
          "type": "address"
        }
      ],
      "name": "ProducerRejected",
      "type": "event"
    },
    {
      "anonymous": false,
      "inputs": [
        {
          "indexed": false,
          "internalType": "address",
          "name": "producer",
          "type": "address"
        }
      ],
      "name": "ProducerRequested",
      "type": "event"
    },
    {
      "inputs": [],
      "name": "admin",
      "outputs": [
        {
          "internalType": "address",
          "name": "",
          "type": "address"
        }
      ],
      "stateMutability": "view",
      "type": "function"
    },
    {
      "inputs": [
        {
          "internalType": "address",
          "name": "producer",
          "type": "address"
        }
      ],
      "name": "approveProducer",
      "outputs": [],
      "stateMutability": "nonpayable",
      "type": "function"
    },
    {
      "inputs": [],
      "name": "getPendingProducers",
      "outputs": [
        {
          "internalType": "address[]",
          "name": "",
          "type": "address[]"
        }
      ],
      "stateMutability": "view",
      "type": "function"
    },
    {
      "inputs": [
        {
          "internalType": "address",
          "name": "producer",
          "type": "address"
        }
      ],
      "name": "getProducerDetails",
      "outputs": [
        {
          "internalType": "string",
          "name": "",
          "type": "string"
        },
        {
          "internalType": "string",
          "name": "",
          "type": "string"
        },
        {
          "internalType": "uint256",
          "name": "",
          "type": "uint256"
        },
        {
          "internalType": "string",
          "name": "",
          "type": "string"
        },
        {
          "internalType": "enum ProducerRegistry.Status",
          "name": "",
          "type": "uint8"
        }
      ],
      "stateMutability": "view",
      "type": "function"
    },
    {
      "inputs": [
        {
          "internalType": "address",
          "name": "",
          "type": "address"
        }
      ],
      "name": "hasRequested",
      "outputs": [
        {
          "internalType": "bool",
          "name": "",
          "type": "bool"
        }
      ],
      "stateMutability": "view",
      "type": "function"
    },
    {
      "inputs": [
        {
          "internalType": "address",
          "name": "producer",
          "type": "address"
        }
      ],
      "name": "isApprovedProducer",
      "outputs": [
        {
          "internalType": "bool",
          "name": "",
          "type": "bool"
        }
      ],
      "stateMutability": "view",
      "type": "function"
    },
    {
      "inputs": [
        {
          "internalType": "uint256",
          "name": "",
          "type": "uint256"
        }
      ],
      "name": "pendingProducers",
      "outputs": [
        {
          "internalType": "address",
          "name": "",
          "type": "address"
        }
      ],
      "stateMutability": "view",
      "type": "function"
    },
    {
      "inputs": [
        {
          "internalType": "address",
          "name": "",
          "type": "address"
        }
      ],
      "name": "producers",
      "outputs": [
        {
          "internalType": "string",
          "name": "name",
          "type": "string"
        },
        {
          "internalType": "string",
          "name": "location",
          "type": "string"
        },
        {
          "internalType": "uint256",
          "name": "capacity",
          "type": "uint256"
        },
        {
          "internalType": "string",
          "name": "aadhaarHash",
          "type": "string"
        },
        {
          "internalType": "enum ProducerRegistry.Status",
          "name": "status",
          "type": "uint8"
        }
      ],
      "stateMutability": "view",
      "type": "function"
    },
    {
      "inputs": [
        {
          "internalType": "address",
          "name": "producer",
          "type": "address"
        }
      ],
      "name": "rejectProducer",
      "outputs": [],
      "stateMutability": "nonpayable",
      "type": "function"
    },
    {
      "inputs": [
        {
          "internalType": "string",
          "name": "_name",
          "type": "string"
        },
        {
          "internalType": "string",
          "name": "_location",
          "type": "string"
        },
        {
          "internalType": "uint256",
          "name": "_capacity",
          "type": "uint256"
        },
        {
          "internalType": "string",
          "name": "_aadhaarHash",
          "type": "string"
        }
      ],
      "name": "requestProducerApproval",
      "outputs": [],
      "stateMutability": "nonpayable",
      "type": "function"
    }
  ],
  "bytecode": "0x6080604052348015600e575f5ffd5b505f80546001600160a01b0319163317905561104b8061002d5f395ff3fe608060405234801561000f575f5ffd5b506004361061009b575f3560e01c806398812dab1161006357806398812dab1461013e578063a409eb7b14610151578063b0f5ce9e14610173578063f72ea40814610188578063f851a4401461019b575f5ffd5b806320cc29551461009f57806326324eff146100c757806332b3502b146100eb57806379ebf6cb146101005780638721b0fe14610113575b5f5ffd5b6100b26100ad366004610c15565b6101ad565b60405190151581526020015b60405180910390f35b6100da6100d5366004610c15565b6101e6565b6040516100be959493929190610c84565b6100fe6100f9366004610d90565b6103a8565b005b6100fe61010e366004610c15565b6105b2565b610126610121366004610e28565b6106e2565b6040516001600160a01b0390911681526020016100be565b6100da61014c366004610c15565b61070a565b6100b261015f366004610c15565b60026020525f908152604090205460ff1681565b61017b610954565b6040516100be9190610e3f565b6100fe610196366004610c15565b6109b4565b5f54610126906001600160a01b031681565b5f60026001600160a01b0383165f9081526001602052604090206004015460ff1660038111156101df576101df610c70565b1492915050565b60016020525f908152604090208054819061020090610e8a565b80601f016020809104026020016040519081016040528092919081815260200182805461022c90610e8a565b80156102775780601f1061024e57610100808354040283529160200191610277565b820191905f5260205f20905b81548152906001019060200180831161025a57829003601f168201915b50505050509080600101805461028c90610e8a565b80601f01602080910402602001604051908101604052809291908181526020018280546102b890610e8a565b80156103035780601f106102da57610100808354040283529160200191610303565b820191905f5260205f20905b8154815290600101906020018083116102e657829003601f168201915b50505050509080600201549080600301805461031e90610e8a565b80601f016020809104026020016040519081016040528092919081815260200182805461034a90610e8a565b80156103955780601f1061036c57610100808354040283529160200191610395565b820191905f5260205f20905b81548152906001019060200180831161037857829003601f168201915b5050506004909301549192505060ff1685565b335f90815260016020526040812090600482015460ff1660038111156103d0576103d0610c70565b14806103f457506003600482015460ff1660038111156103f2576103f2610c70565b145b61043c5760405162461bcd60e51b815260206004820152601460248201527321b0b73737ba103932b8bab2b9ba1030b3b0b4b760611b60448201526064015b60405180910390fd5b5f83116104965760405162461bcd60e51b815260206004820152602260248201527f4361706163697479206d7573742062652067726561746572207468616e207a65604482015261726f60f01b6064820152608401610433565b5f8251116104db5760405162461bcd60e51b8152602060048201526012602482015271111bd8dcc81a185cda081c995c5d5a5c995960721b6044820152606401610433565b806104e68682610f0d565b50600181016104f58582610f0d565b50600281018390556003810161050b8382610f0d565b5060048101805460ff199081166001908117909255600380548084019091557fc2575a0e9e593c00f959f8c92f12db2869c3395a3b0502d05e2516446f71f85b0180546001600160a01b031916339081179091555f81815260026020908152604091829020805490941690941790925590519081527f86a9e21142b913146bf8eb549f7a2dd3bfd6f064947cb17785695cad067ed83e910160405180910390a15050505050565b5f546001600160a01b031633146106015760405162461bcd60e51b8152602060048201526013602482015272556e617574686f72697365642041636365737360681b6044820152606401610433565b806001806001600160a01b0383165f9081526001602052604090206004015460ff16600381111561063457610634610c70565b146106725760405162461bcd60e51b815260206004820152600e60248201526d496e76616c69642073746174757360901b6044820152606401610433565b6001600160a01b0383165f908152600160205260409020600401805460ff191660031790556106a083610adb565b6040516001600160a01b03841681527fd06146d395402b7661d42dd9486da1958d65630d5e709798a942b450c75ccc67906020015b60405180910390a1505050565b600381815481106106f1575f80fd5b5f918252602090912001546001600160a01b0316905081565b6060805f60605f5f60015f886001600160a01b03166001600160a01b031681526020019081526020015f206040518060a00160405290815f8201805461074f90610e8a565b80601f016020809104026020016040519081016040528092919081815260200182805461077b90610e8a565b80156107c65780601f1061079d576101008083540402835291602001916107c6565b820191905f5260205f20905b8154815290600101906020018083116107a957829003601f168201915b505050505081526020016001820180546107df90610e8a565b80601f016020809104026020016040519081016040528092919081815260200182805461080b90610e8a565b80156108565780601f1061082d57610100808354040283529160200191610856565b820191905f5260205f20905b81548152906001019060200180831161083957829003601f168201915b505050505081526020016002820154815260200160038201805461087990610e8a565b80601f01602080910402602001604051908101604052809291908181526020018280546108a590610e8a565b80156108f05780601f106108c7576101008083540402835291602001916108f0565b820191905f5260205f20905b8154815290600101906020018083116108d357829003601f168201915b5050509183525050600482015460209091019060ff16600381111561091757610917610c70565b600381111561092857610928610c70565b9052508051602082015160408301516060840151608090940151929b919a509850919650945092505050565b606060038054806020026020016040519081016040528092919081815260200182805480156109aa57602002820191905f5260205f20905b81546001600160a01b0316815260019091019060200180831161098c575b5050505050905090565b5f546001600160a01b03163314610a035760405162461bcd60e51b8152602060048201526013602482015272556e617574686f72697365642041636365737360681b6044820152606401610433565b806001806001600160a01b0383165f9081526001602052604090206004015460ff166003811115610a3657610a36610c70565b14610a745760405162461bcd60e51b815260206004820152600e60248201526d496e76616c69642073746174757360901b6044820152606401610433565b6001600160a01b0383165f908152600160205260409020600401805460ff19166002179055610aa283610adb565b6040516001600160a01b03841681527f6ce2e25fe5b5d07ce2642d925fcba910fc3bb3a8a06bf5660ab96e305b36eac9906020016106d5565b6001600160a01b0381165f9081526002602052604090205460ff16610afd5750565b6001600160a01b0381165f908152600260205260408120805460ff19169055600354905b81811015610c1057826001600160a01b031660038281548110610b4657610b46610fc8565b5f918252602090912001546001600160a01b031603610c08576003610b6c600184610fdc565b81548110610b7c57610b7c610fc8565b5f91825260209091200154600380546001600160a01b039092169183908110610ba757610ba7610fc8565b905f5260205f20015f6101000a8154816001600160a01b0302191690836001600160a01b031602179055506003805480610be357610be3611001565b5f8281526020902081015f1990810180546001600160a01b0319169055019055505050565b600101610b21565b505050565b5f60208284031215610c25575f5ffd5b81356001600160a01b0381168114610c3b575f5ffd5b9392505050565b5f81518084528060208401602086015e5f602082860101526020601f19601f83011685010191505092915050565b634e487b7160e01b5f52602160045260245ffd5b60a081525f610c9660a0830188610c42565b8281036020840152610ca88188610c42565b90508560408401528281036060840152610cc28186610c42565b91505060048310610ce157634e487b7160e01b5f52602160045260245ffd5b8260808301529695505050505050565b634e487b7160e01b5f52604160045260245ffd5b5f82601f830112610d14575f5ffd5b813567ffffffffffffffff811115610d2e57610d2e610cf1565b604051601f8201601f19908116603f0116810167ffffffffffffffff81118282101715610d5d57610d5d610cf1565b604052818152838201602001851015610d74575f5ffd5b816020850160208301375f918101602001919091529392505050565b5f5f5f5f60808587031215610da3575f5ffd5b843567ffffffffffffffff811115610db9575f5ffd5b610dc587828801610d05565b945050602085013567ffffffffffffffff811115610de1575f5ffd5b610ded87828801610d05565b93505060408501359150606085013567ffffffffffffffff811115610e10575f5ffd5b610e1c87828801610d05565b91505092959194509250565b5f60208284031215610e38575f5ffd5b5035919050565b602080825282518282018190525f918401906040840190835b81811015610e7f5783516001600160a01b0316835260209384019390920191600101610e58565b509095945050505050565b600181811c90821680610e9e57607f821691505b602082108103610ebc57634e487b7160e01b5f52602260045260245ffd5b50919050565b601f821115610c1057805f5260205f20601f840160051c81016020851015610ee75750805b601f840160051c820191505b81811015610f06575f8155600101610ef3565b5050505050565b815167ffffffffffffffff811115610f2757610f27610cf1565b610f3b81610f358454610e8a565b84610ec2565b6020601f821160018114610f6d575f8315610f565750848201515b5f19600385901b1c1916600184901b178455610f06565b5f84815260208120601f198516915b82811015610f9c5787850151825560209485019460019092019101610f7c565b5084821015610fb957868401515f19600387901b60f8161c191681555b50505050600190811b01905550565b634e487b7160e01b5f52603260045260245ffd5b81810381811115610ffb57634e487b7160e01b5f52601160045260245ffd5b92915050565b634e487b7160e01b5f52603160045260245ffdfea26469706673582212206961d9f013b0ae0a8a18f4eba1500ca4a9e65474bc815a91e5691b44f882bdb764736f6c634300081e0033",
  "linkReferences": {},
  "deployedLinkReferences": {},
  "immutableReferences": {},
  "inputSourceName": "project/contracts/ProducerRegistry.sol",
  "buildInfoId": "solc-0_8_30-cd95d28f99b1741a59e73654a8846bced6584cc4"
}