{
  "_format": "hh3-artifact-1",
  "contractName": "ProducerRegistry",
  "sourceName": "contracts/ProducerRegistry.sol",
  "abi": [
    {
      "inputs": [],
      "stateMutability": "nonpayable",
      "type": "constructor"
    },
    {
      "anonymous": false,
      "inputs": [
        {
          "indexed": false,
          "internalType": "address",
          "name": "producer",
          "type": "address"
        }
      ],
      "name": "ProducerApproved",
      "type": "event"
    },
    {
      "anonymous": false,
      "inputs": [
        {
          "indexed": false,
          "internalType": "address",
          "name": "producer",
          "type": "address"
        }
      ],
      "name": "ProducerRejected",
      "type": "event"
    },
    {
      "anonymous": false,
      "inputs": [
        {
          "indexed": false,
          "internalType": "address",
          "name": "producer",
          "type": "address"
        }
      ],
      "name": "ProducerRequested",
      "type": "event"
    },
    {
      "inputs": [],
      "name": "admin",
      "outputs": [
        {
          "internalType": "address",
          "name": "",
          "type": "address"
        }
      ],
      "stateMutability": "view",
      "type": "function"
    },
    {
      "inputs": [
        {
          "internalType": "uint256",
          "name": "",
          "type": "uint256"
        }
      ],
      "name": "allProducers",
      "outputs": [
        {
          "internalType": "address",
          "name": "",
          "type": "address"
        }
      ],
      "stateMutability": "view",
      "type": "function"
    },
    {
      "inputs": [
        {
          "internalType": "address",
          "name": "producer",
          "type": "address"
        }
      ],
      "name": "approveProducer",
      "outputs": [],
      "stateMutability": "nonpayable",
      "type": "function"
    },
    {
      "inputs": [],
      "name": "getAllProducers",
      "outputs": [
        {
          "internalType": "address[]",
          "name": "",
          "type": "address[]"
        }
      ],
      "stateMutability": "view",
      "type": "function"
    },
    {
      "inputs": [],
      "name": "getPendingProducers",
      "outputs": [
        {
          "internalType": "address[]",
          "name": "",
          "type": "address[]"
        }
      ],
      "stateMutability": "view",
      "type": "function"
    },
    {
      "inputs": [
        {
          "internalType": "address",
          "name": "producer",
          "type": "address"
        }
      ],
      "name": "getProducerDetails",
      "outputs": [
        {
          "internalType": "string",
          "name": "",
          "type": "string"
        },
        {
          "internalType": "string",
          "name": "",
          "type": "string"
        },
        {
          "internalType": "uint256",
          "name": "",
          "type": "uint256"
        },
        {
          "internalType": "string",
          "name": "",
          "type": "string"
        },
        {
          "internalType": "enum ProducerRegistry.Status",
          "name": "",
          "type": "uint8"
        }
      ],
      "stateMutability": "view",
      "type": "function"
    },
    {
      "inputs": [
        {
          "internalType": "address",
          "name": "",
          "type": "address"
        }
      ],
      "name": "hasRequested",
      "outputs": [
        {
          "internalType": "bool",
          "name": "",
          "type": "bool"
        }
      ],
      "stateMutability": "view",
      "type": "function"
    },
    {
      "inputs": [
        {
          "internalType": "address",
          "name": "producer",
          "type": "address"
        }
      ],
      "name": "isApprovedProducer",
      "outputs": [
        {
          "internalType": "bool",
          "name": "",
          "type": "bool"
        }
      ],
      "stateMutability": "view",
      "type": "function"
    },
    {
      "inputs": [
        {
          "internalType": "uint256",
          "name": "",
          "type": "uint256"
        }
      ],
      "name": "pendingProducers",
      "outputs": [
        {
          "internalType": "address",
          "name": "",
          "type": "address"
        }
      ],
      "stateMutability": "view",
      "type": "function"
    },
    {
      "inputs": [
        {
          "internalType": "address",
          "name": "",
          "type": "address"
        }
      ],
      "name": "producers",
      "outputs": [
        {
          "internalType": "string",
          "name": "name",
          "type": "string"
        },
        {
          "internalType": "string",
          "name": "location",
          "type": "string"
        },
        {
          "internalType": "uint256",
          "name": "capacity",
          "type": "uint256"
        },
        {
          "internalType": "string",
          "name": "aadhaarHash",
          "type": "string"
        },
        {
          "internalType": "enum ProducerRegistry.Status",
          "name": "status",
          "type": "uint8"
        }
      ],
      "stateMutability": "view",
      "type": "function"
    },
    {
      "inputs": [
        {
          "internalType": "address",
          "name": "producer",
          "type": "address"
        }
      ],
      "name": "rejectProducer",
      "outputs": [],
      "stateMutability": "nonpayable",
      "type": "function"
    },
    {
      "inputs": [
        {
          "internalType": "string",
          "name": "_name",
          "type": "string"
        },
        {
          "internalType": "string",
          "name": "_location",
          "type": "string"
        },
        {
          "internalType": "uint256",
          "name": "_capacity",
          "type": "uint256"
        },
        {
          "internalType": "string",
          "name": "_aadhaarHash",
          "type": "string"
        }
      ],
      "name": "requestProducerApproval",
      "outputs": [],
      "stateMutability": "nonpayable",
      "type": "function"
    }
  ],
  "bytecode": "0x6080604052348015600e575f5ffd5b505f80546001600160a01b031916331790556111698061002d5f395ff3fe608060405234801561000f575f5ffd5b50600436106100b1575f3560e01c80638721b0fe1161006e5780638721b0fe1461016957806398812dab1461017c578063a409eb7b1461018f578063b0f5ce9e146101b1578063f72ea408146101b9578063f851a440146101cc575f5ffd5b806320cc2955146100b557806326324eff146100dd5780632c06779d1461010157806332b3502b14610116578063397734f31461012b57806379ebf6cb14610156575b5f5ffd5b6100c86100c3366004610d33565b6101de565b60405190151581526020015b60405180910390f35b6100f06100eb366004610d33565b610217565b6040516100d4959493929190610da2565b6101096103d9565b6040516100d49190610e0f565b610129610124366004610ef9565b610439565b005b61013e610139366004610f91565b6106c3565b6040516001600160a01b0390911681526020016100d4565b610129610164366004610d33565b6106eb565b61013e610177366004610f91565b61081b565b6100f061018a366004610d33565b61082a565b6100c861019d366004610d33565b60026020525f908152604090205460ff1681565b610109610a74565b6101296101c7366004610d33565b610ad2565b5f5461013e906001600160a01b031681565b5f60026001600160a01b0383165f9081526001602052604090206004015460ff16600381111561021057610210610d8e565b1492915050565b60016020525f908152604090208054819061023190610fa8565b80601f016020809104026020016040519081016040528092919081815260200182805461025d90610fa8565b80156102a85780601f1061027f576101008083540402835291602001916102a8565b820191905f5260205f20905b81548152906001019060200180831161028b57829003601f168201915b5050505050908060010180546102bd90610fa8565b80601f01602080910402602001604051908101604052809291908181526020018280546102e990610fa8565b80156103345780601f1061030b57610100808354040283529160200191610334565b820191905f5260205f20905b81548152906001019060200180831161031757829003601f168201915b50505050509080600201549080600301805461034f90610fa8565b80601f016020809104026020016040519081016040528092919081815260200182805461037b90610fa8565b80156103c65780601f1061039d576101008083540402835291602001916103c6565b820191905f5260205f20905b8154815290600101906020018083116103a957829003601f168201915b5050506004909301549192505060ff1685565b6060600480548060200260200160405190810160405280929190818152602001828054801561042f57602002820191905f5260205f20905b81546001600160a01b03168152600190910190602001808311610411575b5050505050905090565b335f90815260016020526040812090600482015460ff16600381111561046157610461610d8e565b148061048557506003600482015460ff16600381111561048357610483610d8e565b145b6104cd5760405162461bcd60e51b815260206004820152601460248201527321b0b73737ba103932b8bab2b9ba1030b3b0b4b760611b60448201526064015b60405180910390fd5b5f83116105275760405162461bcd60e51b815260206004820152602260248201527f4361706163697479206d7573742062652067726561746572207468616e207a65604482015261726f60f01b60648201526084016104c4565b5f82511161056f5760405162461bcd60e51b81526020600482015260156024820152741058591a18585c881a185cda081c995c5d5a5c9959605a1b60448201526064016104c4565b5f600482015460ff16600381111561058957610589610d8e565b1480156105a55750335f9081526002602052604090205460ff16155b156105ec57600480546001810182555f919091527f8a35acfbc15ff81a39ae7d344fd709f28e8600b4aa8c65c6b64bfe7fe36bd19b0180546001600160a01b031916331790555b806105f7868261102b565b5060018101610606858261102b565b50600281018390556003810161061c838261102b565b5060048101805460ff199081166001908117909255600380548084019091557fc2575a0e9e593c00f959f8c92f12db2869c3395a3b0502d05e2516446f71f85b0180546001600160a01b031916339081179091555f81815260026020908152604091829020805490941690941790925590519081527f86a9e21142b913146bf8eb549f7a2dd3bfd6f064947cb17785695cad067ed83e910160405180910390a15050505050565b600481815481106106d2575f80fd5b5f918252602090912001546001600160a01b0316905081565b5f546001600160a01b0316331461073a5760405162461bcd60e51b8152602060048201526013602482015272556e617574686f72697365642041636365737360681b60448201526064016104c4565b806001806001600160a01b0383165f9081526001602052604090206004015460ff16600381111561076d5761076d610d8e565b146107ab5760405162461bcd60e51b815260206004820152600e60248201526d496e76616c69642073746174757360901b60448201526064016104c4565b6001600160a01b0383165f908152600160205260409020600401805460ff191660031790556107d983610bf9565b6040516001600160a01b03841681527fd06146d395402b7661d42dd9486da1958d65630d5e709798a942b450c75ccc67906020015b60405180910390a1505050565b600381815481106106d2575f80fd5b6060805f60605f5f60015f886001600160a01b03166001600160a01b031681526020019081526020015f206040518060a00160405290815f8201805461086f90610fa8565b80601f016020809104026020016040519081016040528092919081815260200182805461089b90610fa8565b80156108e65780601f106108bd576101008083540402835291602001916108e6565b820191905f5260205f20905b8154815290600101906020018083116108c957829003601f168201915b505050505081526020016001820180546108ff90610fa8565b80601f016020809104026020016040519081016040528092919081815260200182805461092b90610fa8565b80156109765780601f1061094d57610100808354040283529160200191610976565b820191905f5260205f20905b81548152906001019060200180831161095957829003601f168201915b505050505081526020016002820154815260200160038201805461099990610fa8565b80601f01602080910402602001604051908101604052809291908181526020018280546109c590610fa8565b8015610a105780601f106109e757610100808354040283529160200191610a10565b820191905f5260205f20905b8154815290600101906020018083116109f357829003601f168201915b5050509183525050600482015460209091019060ff166003811115610a3757610a37610d8e565b6003811115610a4857610a48610d8e565b9052508051602082015160408301516060840151608090940151929b919a509850919650945092505050565b6060600380548060200260200160405190810160405280929190818152602001828054801561042f57602002820191905f5260205f209081546001600160a01b03168152600190910190602001808311610411575050505050905090565b5f546001600160a01b03163314610b215760405162461bcd60e51b8152602060048201526013602482015272556e617574686f72697365642041636365737360681b60448201526064016104c4565b806001806001600160a01b0383165f9081526001602052604090206004015460ff166003811115610b5457610b54610d8e565b14610b925760405162461bcd60e51b815260206004820152600e60248201526d496e76616c69642073746174757360901b60448201526064016104c4565b6001600160a01b0383165f908152600160205260409020600401805460ff19166002179055610bc083610bf9565b6040516001600160a01b03841681527f6ce2e25fe5b5d07ce2642d925fcba910fc3bb3a8a06bf5660ab96e305b36eac99060200161080e565b6001600160a01b0381165f9081526002602052604090205460ff16610c1b5750565b6001600160a01b0381165f908152600260205260408120805460ff19169055600354905b81811015610d2e57826001600160a01b031660038281548110610c6457610c646110e6565b5f918252602090912001546001600160a01b031603610d26576003610c8a6001846110fa565b81548110610c9a57610c9a6110e6565b5f91825260209091200154600380546001600160a01b039092169183908110610cc557610cc56110e6565b905f5260205f20015f6101000a8154816001600160a01b0302191690836001600160a01b031602179055506003805480610d0157610d0161111f565b5f8281526020902081015f1990810180546001600160a01b0319169055019055505050565b600101610c3f565b505050565b5f60208284031215610d43575f5ffd5b81356001600160a01b0381168114610d59575f5ffd5b9392505050565b5f81518084528060208401602086015e5f602082860101526020601f19601f83011685010191505092915050565b634e487b7160e01b5f52602160045260245ffd5b60a081525f610db460a0830188610d60565b8281036020840152610dc68188610d60565b90508560408401528281036060840152610de08186610d60565b91505060048310610dff57634e487b7160e01b5f52602160045260245ffd5b8260808301529695505050505050565b602080825282518282018190525f918401906040840190835b81811015610e4f5783516001600160a01b0316835260209384019390920191600101610e28565b509095945050505050565b634e487b7160e01b5f52604160045260245ffd5b5f82601f830112610e7d575f5ffd5b813567ffffffffffffffff811115610e9757610e97610e5a565b604051601f8201601f19908116603f0116810167ffffffffffffffff81118282101715610ec657610ec6610e5a565b604052818152838201602001851015610edd575f5ffd5b816020850160208301375f918101602001919091529392505050565b5f5f5f5f60808587031215610f0c575f5ffd5b843567ffffffffffffffff811115610f22575f5ffd5b610f2e87828801610e6e565b945050602085013567ffffffffffffffff811115610f4a575f5ffd5b610f5687828801610e6e565b93505060408501359150606085013567ffffffffffffffff811115610f79575f5ffd5b610f8587828801610e6e565b91505092959194509250565b5f60208284031215610fa1575f5ffd5b5035919050565b600181811c90821680610fbc57607f821691505b602082108103610fda57634e487b7160e01b5f52602260045260245ffd5b50919050565b601f821115610d2e57805f5260205f20601f840160051c810160208510156110055750805b601f840160051c820191505b81811015611024575f8155600101611011565b5050505050565b815167ffffffffffffffff81111561104557611045610e5a565b611059816110538454610fa8565b84610fe0565b6020601f82116001811461108b575f83156110745750848201515b5f19600385901b1c1916600184901b178455611024565b5f84815260208120601f198516915b828110156110ba578785015182556020948501946001909201910161109a565b50848210156110d757868401515f19600387901b60f8161c191681555b50505050600190811b01905550565b634e487b7160e01b5f52603260045260245ffd5b8181038181111561111957634e487b7160e01b5f52601160045260245ffd5b92915050565b634e487b7160e01b5f52603160045260245ffdfea264697066735822122021fd54cac83975df88c0860b2ee6035c1cdb9fd5d217213c0eefe7c940964a0d64736f6c634300081e0033",
  "linkReferences": {},
  "deployedLinkReferences": {},
  "immutableReferences": {},
  "inputSourceName": "project/contracts/ProducerRegistry.sol",
  "buildInfoId": "solc-0_8_30-72af41111d37686849460e5b2734b5034d7e5dbe"
}