{
  "_format": "hh3-artifact-1",
  "contractName": "EnergyToken",
  "sourceName": "contracts/EnergyToken.sol",
  "abi": [
    {
      "inputs": [
        {
          "internalType": "address",
          "name": "registryAddress",
          "type": "address"
        }
      ],
      "stateMutability": "nonpayable",
      "type": "constructor"
    },
    {
      "inputs": [
        {
          "internalType": "address",
          "name": "spender",
          "type": "address"
        },
        {
          "internalType": "uint256",
          "name": "allowance",
          "type": "uint256"
        },
        {
          "internalType": "uint256",
          "name": "needed",
          "type": "uint256"
        }
      ],
      "name": "ERC20InsufficientAllowance",
      "type": "error"
    },
    {
      "inputs": [
        {
          "internalType": "address",
          "name": "sender",
          "type": "address"
        },
        {
          "internalType": "uint256",
          "name": "balance",
          "type": "uint256"
        },
        {
          "internalType": "uint256",
          "name": "needed",
          "type": "uint256"
        }
      ],
      "name": "ERC20InsufficientBalance",
      "type": "error"
    },
    {
      "inputs": [
        {
          "internalType": "address",
          "name": "approver",
          "type": "address"
        }
      ],
      "name": "ERC20InvalidApprover",
      "type": "error"
    },
    {
      "inputs": [
        {
          "internalType": "address",
          "name": "receiver",
          "type": "address"
        }
      ],
      "name": "ERC20InvalidReceiver",
      "type": "error"
    },
    {
      "inputs": [
        {
          "internalType": "address",
          "name": "sender",
          "type": "address"
        }
      ],
      "name": "ERC20InvalidSender",
      "type": "error"
    },
    {
      "inputs": [
        {
          "internalType": "address",
          "name": "spender",
          "type": "address"
        }
      ],
      "name": "ERC20InvalidSpender",
      "type": "error"
    },
    {
      "anonymous": false,
      "inputs": [
        {
          "indexed": true,
          "internalType": "address",
          "name": "owner",
          "type": "address"
        },
        {
          "indexed": true,
          "internalType": "address",
          "name": "spender",
          "type": "address"
        },
        {
          "indexed": false,
          "internalType": "uint256",
          "name": "value",
          "type": "uint256"
        }
      ],
      "name": "Approval",
      "type": "event"
    },
    {
      "anonymous": false,
      "inputs": [
        {
          "indexed": true,
          "internalType": "address",
          "name": "from",
          "type": "address"
        },
        {
          "indexed": true,
          "internalType": "address",
          "name": "to",
          "type": "address"
        },
        {
          "indexed": false,
          "internalType": "uint256",
          "name": "value",
          "type": "uint256"
        }
      ],
      "name": "Transfer",
      "type": "event"
    },
    {
      "inputs": [
        {
          "internalType": "address",
          "name": "owner",
          "type": "address"
        },
        {
          "internalType": "address",
          "name": "spender",
          "type": "address"
        }
      ],
      "name": "allowance",
      "outputs": [
        {
          "internalType": "uint256",
          "name": "",
          "type": "uint256"
        }
      ],
      "stateMutability": "view",
      "type": "function"
    },
    {
      "inputs": [
        {
          "internalType": "address",
          "name": "spender",
          "type": "address"
        },
        {
          "internalType": "uint256",
          "name": "value",
          "type": "uint256"
        }
      ],
      "name": "approve",
      "outputs": [
        {
          "internalType": "bool",
          "name": "",
          "type": "bool"
        }
      ],
      "stateMutability": "nonpayable",
      "type": "function"
    },
    {
      "inputs": [
        {
          "internalType": "address",
          "name": "account",
          "type": "address"
        }
      ],
      "name": "balanceOf",
      "outputs": [
        {
          "internalType": "uint256",
          "name": "",
          "type": "uint256"
        }
      ],
      "stateMutability": "view",
      "type": "function"
    },
    {
      "inputs": [],
      "name": "decimals",
      "outputs": [
        {
          "internalType": "uint8",
          "name": "",
          "type": "uint8"
        }
      ],
      "stateMutability": "view",
      "type": "function"
    },
    {
      "inputs": [
        {
          "internalType": "uint256",
          "name": "amount",
          "type": "uint256"
        }
      ],
      "name": "mintEnergy",
      "outputs": [],
      "stateMutability": "nonpayable",
      "type": "function"
    },
    {
      "inputs": [],
      "name": "name",
      "outputs": [
        {
          "internalType": "string",
          "name": "",
          "type": "string"
        }
      ],
      "stateMutability": "view",
      "type": "function"
    },
    {
      "inputs": [],
      "name": "registry",
      "outputs": [
        {
          "internalType": "contract IProducerRegistry",
          "name": "",
          "type": "address"
        }
      ],
      "stateMutability": "view",
      "type": "function"
    },
    {
      "inputs": [],
      "name": "symbol",
      "outputs": [
        {
          "internalType": "string",
          "name": "",
          "type": "string"
        }
      ],
      "stateMutability": "view",
      "type": "function"
    },
    {
      "inputs": [],
      "name": "totalSupply",
      "outputs": [
        {
          "internalType": "uint256",
          "name": "",
          "type": "uint256"
        }
      ],
      "stateMutability": "view",
      "type": "function"
    },
    {
      "inputs": [
        {
          "internalType": "address",
          "name": "to",
          "type": "address"
        },
        {
          "internalType": "uint256",
          "name": "value",
          "type": "uint256"
        }
      ],
      "name": "transfer",
      "outputs": [
        {
          "internalType": "bool",
          "name": "",
          "type": "bool"
        }
      ],
      "stateMutability": "nonpayable",
      "type": "function"
    },
    {
      "inputs": [
        {
          "internalType": "address",
          "name": "from",
          "type": "address"
        },
        {
          "internalType": "address",
          "name": "to",
          "type": "address"
        },
        {
          "internalType": "uint256",
          "name": "value",
          "type": "uint256"
        }
      ],
      "name": "transferFrom",
      "outputs": [
        {
          "internalType": "bool",
          "name": "",
          "type": "bool"
        }
      ],
      "stateMutability": "nonpayable",
      "type": "function"
    }
  ],
  "bytecode": "0x608060405234801561000f575f5ffd5b50604051610aa2380380610aa283398101604081905261002e916100b3565b6040518060400160405280600b81526020016a22b732b933bcaa37b5b2b760a91b81525060405180604001604052806003815260200162454e4760e81b815250816003908161007d9190610178565b50600461008a8282610178565b5050600580546001600160a01b0319166001600160a01b03939093169290921790915550610232565b5f602082840312156100c3575f5ffd5b81516001600160a01b03811681146100d9575f5ffd5b9392505050565b634e487b7160e01b5f52604160045260245ffd5b600181811c9082168061010857607f821691505b60208210810361012657634e487b7160e01b5f52602260045260245ffd5b50919050565b601f82111561017357805f5260205f20601f840160051c810160208510156101515750805b601f840160051c820191505b81811015610170575f815560010161015d565b50505b505050565b81516001600160401b03811115610191576101916100e0565b6101a58161019f84546100f4565b8461012c565b6020601f8211600181146101d7575f83156101c05750848201515b5f19600385901b1c1916600184901b178455610170565b5f84815260208120601f198516915b8281101561020657878501518255602094850194600190920191016101e6565b508482101561022357868401515f19600387901b60f8161c191681555b50505050600190811b01905550565b6108638061023f5f395ff3fe608060405234801561000f575f5ffd5b50600436106100a6575f3560e01c806370a082311161006e57806370a082311461011f5780637b1039991461014757806395d89b4114610172578063a9059cbb1461017a578063dd62ed3e1461018d578063de2e84dc146101c5575f5ffd5b806306fdde03146100aa578063095ea7b3146100c857806318160ddd146100eb57806323b872dd146100fd578063313ce56714610110575b5f5ffd5b6100b26101da565b6040516100bf919061069d565b60405180910390f35b6100db6100d63660046106ed565b61026a565b60405190151581526020016100bf565b6002545b6040519081526020016100bf565b6100db61010b366004610715565b610283565b604051600281526020016100bf565b6100ef61012d36600461074f565b6001600160a01b03165f9081526020819052604090205490565b60055461015a906001600160a01b031681565b6040516001600160a01b0390911681526020016100bf565b6100b26102a6565b6100db6101883660046106ed565b6102b5565b6100ef61019b36600461076f565b6001600160a01b039182165f90815260016020908152604080832093909416825291909152205490565b6101d86101d33660046107a0565b6102c2565b005b6060600380546101e9906107b7565b80601f0160208091040260200160405190810160405280929190818152602001828054610215906107b7565b80156102605780601f1061023757610100808354040283529160200191610260565b820191905f5260205f20905b81548152906001019060200180831161024357829003601f168201915b5050505050905090565b5f33610277818585610382565b60019150505b92915050565b5f33610290858285610394565b61029b858585610410565b506001949350505050565b6060600480546101e9906107b7565b5f33610277818585610410565b6005546040516320cc295560e01b81523360048201526001600160a01b03909116906320cc295590602401602060405180830381865afa158015610308573d5f5f3e3d5ffd5b505050506040513d601f19601f8201168201806040525081019061032c91906107ef565b6103755760405162461bcd60e51b81526020600482015260156024820152742737ba1030b8383937bb32b210383937b23ab1b2b960591b60448201526064015b60405180910390fd5b61037f338261046d565b50565b61038f83838360016104a5565b505050565b6001600160a01b038381165f908152600160209081526040808320938616835292905220545f1981101561040a57818110156103fc57604051637dc7a0d960e11b81526001600160a01b0384166004820152602481018290526044810183905260640161036c565b61040a84848484035f6104a5565b50505050565b6001600160a01b03831661043957604051634b637e8f60e11b81525f600482015260240161036c565b6001600160a01b0382166104625760405163ec442f0560e01b81525f600482015260240161036c565b61038f838383610577565b6001600160a01b0382166104965760405163ec442f0560e01b81525f600482015260240161036c565b6104a15f8383610577565b5050565b6001600160a01b0384166104ce5760405163e602df0560e01b81525f600482015260240161036c565b6001600160a01b0383166104f757604051634a1406b160e11b81525f600482015260240161036c565b6001600160a01b038085165f908152600160209081526040808320938716835292905220829055801561040a57826001600160a01b0316846001600160a01b03167f8c5be1e5ebec7d5bd14f71427d1e84f3dd0314c0f7b2291e5b200ac8c7c3b9258460405161056991815260200190565b60405180910390a350505050565b6001600160a01b0383166105a1578060025f828254610596919061080e565b909155506106119050565b6001600160a01b0383165f90815260208190526040902054818110156105f35760405163391434e360e21b81526001600160a01b0385166004820152602481018290526044810183905260640161036c565b6001600160a01b0384165f9081526020819052604090209082900390555b6001600160a01b03821661062d5760028054829003905561064b565b6001600160a01b0382165f9081526020819052604090208054820190555b816001600160a01b0316836001600160a01b03167fddf252ad1be2c89b69c2b068fc378daa952ba7f163c4a11628f55a4df523b3ef8360405161069091815260200190565b60405180910390a3505050565b602081525f82518060208401528060208501604085015e5f604082850101526040601f19601f83011684010191505092915050565b80356001600160a01b03811681146106e8575f5ffd5b919050565b5f5f604083850312156106fe575f5ffd5b610707836106d2565b946020939093013593505050565b5f5f5f60608486031215610727575f5ffd5b610730846106d2565b925061073e602085016106d2565b929592945050506040919091013590565b5f6020828403121561075f575f5ffd5b610768826106d2565b9392505050565b5f5f60408385031215610780575f5ffd5b610789836106d2565b9150610797602084016106d2565b90509250929050565b5f602082840312156107b0575f5ffd5b5035919050565b600181811c908216806107cb57607f821691505b6020821081036107e957634e487b7160e01b5f52602260045260245ffd5b50919050565b5f602082840312156107ff575f5ffd5b81518015158114610768575f5ffd5b8082018082111561027d57634e487b7160e01b5f52601160045260245ffdfea2646970667358221220c4701f71fb3961450d4a3bb6d2bd17f3436f9d08d74c751c4a57eac795e421dc64736f6c634300081e0033",
  "linkReferences": {},
  "deployedLinkReferences": {},
  "immutableReferences": {},
  "inputSourceName": "project/contracts/EnergyToken.sol",
  "buildInfoId": "solc-0_8_30-7e6bb14abf580a85e3e4cea9dd10d718e2c98c78"
}