{
  "_format": "hh3-artifact-1",
  "contractName": "EnergyMarketplace",
  "sourceName": "contracts/EnergyMarketplace.sol",
  "abi": [
    {
      "inputs": [
        {
          "internalType": "address",
          "name": "registryAddress",
          "type": "address"
        },
        {
          "internalType": "address",
          "name": "tokenAddress",
          "type": "address"
        }
      ],
      "stateMutability": "nonpayable",
      "type": "constructor"
    },
    {
      "anonymous": false,
      "inputs": [
        {
          "indexed": true,
          "internalType": "uint256",
          "name": "listingId",
          "type": "uint256"
        },
        {
          "indexed": true,
          "internalType": "address",
          "name": "producer",
          "type": "address"
        },
        {
          "indexed": false,
          "internalType": "uint256",
          "name": "amount",
          "type": "uint256"
        },
        {
          "indexed": false,
          "internalType": "uint256",
          "name": "price",
          "type": "uint256"
        }
      ],
      "name": "EnergyListed",
      "type": "event"
    },
    {
      "anonymous": false,
      "inputs": [
        {
          "indexed": true,
          "internalType": "uint256",
          "name": "listingId",
          "type": "uint256"
        },
        {
          "indexed": true,
          "internalType": "address",
          "name": "buyer",
          "type": "address"
        },
        {
          "indexed": false,
          "internalType": "uint256",
          "name": "amount",
          "type": "uint256"
        },
        {
          "indexed": false,
          "internalType": "uint256",
          "name": "totalCost",
          "type": "uint256"
        }
      ],
      "name": "EnergyPurchased",
      "type": "event"
    },
    {
      "inputs": [
        {
          "internalType": "uint256",
          "name": "listingId",
          "type": "uint256"
        },
        {
          "internalType": "uint256",
          "name": "_amt",
          "type": "uint256"
        }
      ],
      "name": "buyEnergy",
      "outputs": [],
      "stateMutability": "payable",
      "type": "function"
    },
    {
      "inputs": [
        {
          "internalType": "uint256",
          "name": "_amt",
          "type": "uint256"
        },
        {
          "internalType": "uint256",
          "name": "_price",
          "type": "uint256"
        }
      ],
      "name": "listEnergy",
      "outputs": [],
      "stateMutability": "nonpayable",
      "type": "function"
    },
    {
      "inputs": [],
      "name": "listingCount",
      "outputs": [
        {
          "internalType": "uint256",
          "name": "",
          "type": "uint256"
        }
      ],
      "stateMutability": "view",
      "type": "function"
    },
    {
      "inputs": [
        {
          "internalType": "uint256",
          "name": "",
          "type": "uint256"
        }
      ],
      "name": "listings",
      "outputs": [
        {
          "internalType": "address",
          "name": "producer",
          "type": "address"
        },
        {
          "internalType": "uint256",
          "name": "amount",
          "type": "uint256"
        },
        {
          "internalType": "uint256",
          "name": "price",
          "type": "uint256"
        },
        {
          "internalType": "bool",
          "name": "active",
          "type": "bool"
        }
      ],
      "stateMutability": "view",
      "type": "function"
    },
    {
      "inputs": [],
      "name": "registry",
      "outputs": [
        {
          "internalType": "contract IProducerRegistry",
          "name": "",
          "type": "address"
        }
      ],
      "stateMutability": "view",
      "type": "function"
    },
    {
      "inputs": [],
      "name": "token",
      "outputs": [
        {
          "internalType": "contract IEnergyToken",
          "name": "",
          "type": "address"
        }
      ],
      "stateMutability": "view",
      "type": "function"
    }
  ],
  "bytecode": "0x6080604052348015600e575f5ffd5b5060405161085b38038061085b833981016040819052602b916074565b600180546001600160a01b039384166001600160a01b0319918216179091555f805492909316911617905560a0565b80516001600160a01b0381168114606f575f5ffd5b919050565b5f5f604083850312156084575f5ffd5b608b83605a565b9150609760208401605a565b90509250929050565b6107ae806100ad5f395ff3fe608060405260043610610054575f3560e01c80637b10399914610058578063a9b07c2614610094578063c8a9fb5e146100b7578063cdb6d52d146100d8578063de74e57b146100eb578063fc0c546a14610166575b5f5ffd5b348015610063575f5ffd5b50600154610077906001600160a01b031681565b6040516001600160a01b0390911681526020015b60405180910390f35b34801561009f575f5ffd5b506100a960025481565b60405190815260200161008b565b3480156100c2575f5ffd5b506100d66100d13660046106bf565b610184565b005b6100d66100e63660046106bf565b610455565b3480156100f6575f5ffd5b5061013a6101053660046106df565b600360208190525f918252604090912080546001820154600283015492909301546001600160a01b0390911692919060ff1684565b604080516001600160a01b0390951685526020850193909352918301521515606082015260800161008b565b348015610171575f5ffd5b505f54610077906001600160a01b031681565b6001546040516320cc295560e01b81523360048201526001600160a01b03909116906320cc295590602401602060405180830381865afa1580156101ca573d5f5f3e3d5ffd5b505050506040513d601f19601f820116820180604052508101906101ee91906106f6565b6102375760405162461bcd60e51b81526020600482015260156024820152742737ba1030b8383937bb32b210383937b23ab1b2b960591b60448201526064015b60405180910390fd5b5f82116102775760405162461bcd60e51b815260206004820152600e60248201526d125b9d985b1a5908185b5bdd5b9d60921b604482015260640161022e565b5f81116102b65760405162461bcd60e51b815260206004820152600d60248201526c496e76616c696420707269636560981b604482015260640161022e565b5f80546040516323b872dd60e01b8152336004820152306024820152604481018590526001600160a01b03909116906323b872dd906064016020604051808303815f875af115801561030a573d5f5f3e3d5ffd5b505050506040513d601f19601f8201168201806040525081019061032e91906106f6565b9050806103895760405162461bcd60e51b8152602060048201526024808201527f546f6b656e207472616e7366657220746f206d61726b6574706c6163652066616044820152631a5b195960e21b606482015260840161022e565b60408051608081018252338082526020808301878152838501878152600160608601818152600280545f9081526003808852908a9020985189546001600160a01b0319166001600160a01b03909116178955945192880192909255915186820155905194909101805460ff19169415159490941790935591548351878152928301869052909290917fdce237255d5bd98b57c816861c3b76c8e47e10382084f482135e29cb83a534be910160405180910390a360028054905f61044b83610730565b9190505550505050565b5f8281526003602081905260409091209081015460ff166104ab5760405162461bcd60e51b815260206004820152601060248201526f496e616374697665206c697374696e6760801b604482015260640161022e565b5f821180156104be575080600101548211155b6104fb5760405162461bcd60e51b815260206004820152600e60248201526d125b9d985b1a5908185b5bdd5b9d60921b604482015260640161022e565b5f81600201548361050c9190610748565b90508034146105545760405162461bcd60e51b8152602060048201526014602482015273125b98dbdc9c9958dd0811551208185b5bdd5b9d60621b604482015260640161022e565b81546040516001600160a01b03909116903480156108fc02915f818181858888f19350505050158015610589573d5f5f3e3d5ffd5b505f805460405163a9059cbb60e01b8152336004820152602481018690526001600160a01b039091169063a9059cbb906044016020604051808303815f875af11580156105d8573d5f5f3e3d5ffd5b505050506040513d601f19601f820116820180604052508101906105fc91906106f6565b90508061064b5760405162461bcd60e51b815260206004820152601e60248201527f546f6b656e207472616e7366657220746f206275796572206661696c65640000604482015260640161022e565b83836001015f82825461065e9190610765565b909155505060018301545f0361067b5760038301805460ff191690555b6040805185815260208101849052339187917fb3f7800221c52a82e5cb1dea74fe5947e147bdd6b315a45301e655007d1e6e9f910160405180910390a35050505050565b5f5f604083850312156106d0575f5ffd5b50508035926020909101359150565b5f602082840312156106ef575f5ffd5b5035919050565b5f60208284031215610706575f5ffd5b81518015158114610715575f5ffd5b9392505050565b634e487b7160e01b5f52601160045260245ffd5b5f600182016107415761074161071c565b5060010190565b808202811582820484141761075f5761075f61071c565b92915050565b8181038181111561075f5761075f61071c56fea2646970667358221220a352030e189227b89653428f49aa83f6725522207da3586ac51c2ed9eb9fb98964736f6c634300081e0033",
  "linkReferences": {},
  "deployedLinkReferences": {},
  "immutableReferences": {},
  "inputSourceName": "project/contracts/EnergyMarketplace.sol",
  "buildInfoId": "solc-0_8_30-e8b6e6a2cec6bfddae513df4539b80445a261fb1"
}